:100000000C94E6000C940E010C940E010C940E015D
:100010000C940E010C940E010C940E010C940E0124
:100020000C940E010C940E010C94B8030C948304F0
:100030000C940E010C940E010C940E010C940E0104
:100040000C940E010C940E010C940E010C940E01F4
:100050000C940E010C940E010C940E010C946B0781
:100060000C940E010C946E090C9448090C940E012A
:100070000C940E010C940E010C940E010C940E01C4
:100080000C940E010C940E010C940E010C940E01B4
:100090000C940E010C940E010C940E010C940E01A4
:1000A0000C940E010C940E010C940E010000000043
:1000B000000000002A2B28000000000000000000C3
:1000C0000000000000000000000000002C9EB4A012
:1000D000A1A2A434A6A7A5AE362D3738271E1F200F
:1000E000212223242526B333B62EB7B89F848586D4
:1000F0008788898A8B8C8D8E8F9091929394959618
:100100009798999A9B9C9D2F3130A3AD3504050695
:100110000708090A0B0C0D0E0F10111213141516F7
:100120001718191A1B1C1DAFB1B0B500080B00023F
:10013000020201000904000001020200000524007F
:100140001001052401010104240206052406000112
:100150000705810310004009040100020A000000A5
:100160000705020240000007058302400000040367
:10017000090412010002EF0201404F1B0892000126
:1001800001020301537061726B46756E004C696C1D
:1001900079506164205553420005010906A101858B
:1001A00002050719E029E715002501750195088169
:1001B00002950175088103950675081500257305DC
:1001C00007190029738100C0770D6B0D11241FBE24
:1001D000CFEFDAE0DEBFCDBF22E0A4E9B1E001C09D
:1001E0001D92A63EB207E1F711E0A0E0B1E0EAE41B
:1001F000F1E202C005900D92A439B107D9F710E0E1
:10020000C5EED0E004C02197FE010E94820EC43EDC
:10021000D107C9F70E94270C0C9498100C94000089
:100220004091A2015091A3012091A0013091A10120
:1002300042175307B4F49091E8009570E1F3909160
:10024000E80092FD19C08093F1008091A201909185
:10025000A30101968F739927892B19F48EEF809350
:10026000E8008091A2019091A30101969093A301CF
:100270008093A20181E0089580E00895DF92EF92DB
:10028000FF920F931F93CF93DF93D82EF92EE42E76
:10029000062F10E0C8010196880F0E94100183E02C
:1002A0000E941001CD2DDF2D0C0F1D1FC017D1078F
:1002B00089F0E7FE03C0FE01849101C088810E949D
:1002C0001001F82E80E00E9410018F2121968111EB
:1002D000EDCF01C081E0DF91CF911F910F91FF9091
:1002E000EF90DF900895615030F02091F100FC0113
:1002F00020830196F8CF289884E68093A80108957A
:100300003FB7F89480919C0190919D01A0919E012E
:10031000B0919F0126B5A89B05C02F3F19F001960B
:10032000A11DB11D3FBFBA2FA92F982F8827820F7B
:10033000911DA11DB11DBC01CD0143E0660F771FCA
:10034000881F991F4A95D1F708958F929F92AF9277
:10035000BF92CF92DF92EF92FF926B017C010E94DD
:1003600080014B015C01C114D104E104F104F1F0FE
:100370000E948001DC01CB0188199909AA09BB09F7
:10038000883E9340A105B10570F321E0C21AD1085F
:10039000E108F10888EE880E83E0981EA11CB11CCC
:1003A000C114D104E104F10419F7DDCFFF90EF90FF
:1003B000DF90CF90BF90AF909F908F900895CF9295
:1003C000DF92EF92FF920F931F93CF93DF936C0115
:1003D0007A018B01C0E0D0E0CE15DF0581F0D801B5
:1003E0006D918D01D601ED91FC910190F081E02D90
:1003F000C6010995892B11F02196EECF7E01C70128
:10040000DF91CF911F910F91FF90EF90DF90CF90F0
:100410000895FC01538D448D252F30E0842F90E00A
:10042000821B930B541710F0CF96089501970895EF
:10043000FC01918D828D981761F0828DDF01A80FEC
:10044000B11D5D968C91928D9F5F9F73928F90E00E
:1004500008958FEF9FEF0895FC01918D828D98177D
:1004600031F0828DE80FF11D858D90E008958FEFBA
:100470009FEF0895FC01918D228D892F90E0805C83
:100480009F4F821B91098F73992708958AEA91E003
:100490000E943A0221E0892B09F420E0822F08957E
:1004A000FC01848DDF01A80FB11DA35ABF4F2C9111
:1004B000848D90E001968F739927848FA689B789E0
:1004C0002C93A089B1898C9182748C93938D848DA7
:1004D000981306C00288F389E02D80818F7D808388
:1004E0000895EF92FF920F931F93CF93DF93EC0148
:1004F00081E0888F9B8D8C8D981305C0E889F989E0
:10050000808185FD26C0F62E0B8D10E00F5F1F4FFA
:100510000F731127E02E8C8DE8120CC00FB607FC6C
:10052000FACFE889F989808185FFF5CFCE010E9455
:100530005002F1CF8B8DFE01E80FF11DE35AFF4F02
:10054000F0829FB7F8940B8FEA89FB8980818062E3
:1005500009C09FB7F894EE89FF896083E889F9891B
:100560008081827480839FBF81E090E0DF91CF9192
:100570001F910F91FF90EF900895CF93DF93EC01BF
:10058000888D8823C9F0EA89FB89808185FD05C0B3
:10059000A889B9898C9186FD0FC00FB607FCF5CFED
:1005A000808185FFF2CFA889B9898C9185FFEDCF35
:1005B000CE010E945002E7CFDF91CF91089580E0F5
:1005C00090E0892B29F00E94460281110C940000D2
:1005D0000895CF92DF92EF92FF920F931F93CF93E4
:1005E000DF936C01EB017B01E40EF51E00E010E0EF
:1005F000CE15DF0581F069916D30D1F3D601ED9113
:10060000FC910190F081E02DC6010995892B19F02C
:100610000F5F1F4FEDCFC801DF91CF911F910F9159
:10062000FF90EF90DF90CF900895089580E090E0E4
:1006300008950E946F10EF92FF921F93CF93DF9364
:10064000EC01162F683818F0E8E7E60F23C0E62F14
:10065000F0E067FF0DC0E058F10981E090E001C0D3
:10066000880FEA95EAF79C81892B8C83E0E012C021
:10067000E455FF4FE491E11107C081E090E09B83D6
:100680008A83E12CF12C3CC0E7FF04C08C8182609E
:100690008C83EF778E818E1739F18F81E81721F1E6
:1006A0008885E81709F18985E817F1F08A85E81748
:1006B000D9F08B85E817C1F0DE01169680E090E056
:1006C0002D91211106C0DE01A80FB91F1696EC93DB
:1006D0000BC001968630910599F781E090E09B83ED
:1006E0008A83E12CF12C07C0CE0104960E94FB0BFB
:1006F000EE24E394F12C183818F0E8E7E10F1DC060
:10070000E12FF0E017FF0EC0E058F10981E090E022
:1007100001C0880FEA95EAF780959C8189238C8334
:10072000E0E00BC0E455FF4FE491EE23D1F0E7FF8A
:1007300004C08C818D7F8C83EF77DE0186E0EE2311
:1007400041F016969C911697E91303C016961C92D9
:100750001697815011968111F2CFCE0104960E9416
:10076000FB0BC701DF91CF911F91FF90EF90089590
:100770001F920F920FB60F9211248F939F93809127
:10078000E1009091E100937F9093E10083FF0FC01F
:100790001092E90091E09093EB001092EC0092E34C
:1007A0009093ED001092A90198E09093F00082FFE1
:1007B00020C093E09093E9009091F200992319F002
:1007C0009AE39093E8009091A701992339F09091D2
:1007D000A70191509093A701992389F19091A801C5
:1007E000992339F09091A80191509093A8019923F1
:1007F00041F184FF10C08091E2008E7E8160809381
:10080000E2008091E1008F7E8093E1008091A6015B
:100810008E7E806111C080FF16C08091E2008E7EC6
:1008200080618093E2008091E1008E7E8093E10000
:100830008091A6018E7E81608093A60104C05D9A9E
:10084000CDCF289AD6CF9F918F910F900FBE0F904A
:100850001F901895DF92EF92FF920F931F93CF9303
:10086000DF93D82E8A017B01E40EF51EEB01CE1535
:10087000DF0571F0D7FE03C0FE01849101C08881BD
:100880000E94100121968111F2CF8FEF9FEF01C0DE
:10089000C801DF91CF911F910F91FF90EF90DF90F2
:1008A00008950F931F93CF93DF931F92CDB7DEB7B9
:1008B00082E0898342E450E06CE271E080E80E94CB
:1008C0002A040E947F0BDC0112960D911C91139754
:1008D0000115110589F0D801ED91FC910280F38199
:1008E000E02DBE016F5F7F4FC801099597FD04C0E1
:1008F000F80100851185ECCF89810F90DF91CF91B0
:100900001F910F9108951F920F920FB60F9211240D
:10091000CF92DF92EF92FF920F931F932F933F930B
:100920004F935F936F937F938F939F93AF93BF93F7
:10093000EF93FF93CF93DF93CDB7DEB76C97DEBF16
:10094000CDBF1092E9008091E80083FFFBC168E011
:10095000CE0145960E94730182EF8093E8008D8955
:1009600087FF05C09091E80090FFFCCF03C09EEF89
:100970009093E800982F907609F0C6C09E894F8921
:10098000588D2F89F88C91110CC0803829F48091F2
:10099000A5018093F10002C01092F1001092F100C5
:1009A00045C1913051F4811141C14130510509F0E7
:1009B0003DC18091A5018D7F0BC0933061F4811101
:1009C00035C14130510509F031C18091A5018260E6
:1009D0008093A5012BC1953049F48091E80080FFF8
:1009E000FCCF822F80688093E30020C1963009F00D
:1009F0005EC00B8D1C8D22E01092E9001092A301C5
:100A00001092A201F21232C01092A1011092A00124
:100A10000E94510499E0BE016F5F7F4FDB01E92F17
:100A20001D92EA95E9F79983FA8291E09E8390EA14
:100A300098879AEF99872091A2013091A301275FAF
:100A40003F4F3C832B838D831092E9001092A301CA
:100A50001092A2011093A1010093A00149E050E07F
:100A600080E00E942A040E945104E0C01093A1017A
:100A70000093A0010E947F0BDC0112960D911C9146
:100A800013970115110509F4BBC0D801ED91FC9134
:100A90000480F581E02DBE016B5E7F4FC801099592
:100AA000009709F0C7C0F80100851185EACF97309B
:100AB00009F445C1983021F481E08093F100B6C07B
:100AC000993009F0B3C0837009F039C1EDE0F1E06D
:100AD00081E031E096E32081211109C08EE7809307
:100AE000EA001092EA008F898093A9019FC0809349
:100AF000E9003093EB0021912093EC009093ED00FE
:100B00008F5F873041F7EACF8B8D9C8D1092E90083
:100B10001092A3011092A2019093A1018093A001D1
:100B2000898D811153C08E899D89913A49F4813212
:100B300009F005C147E050E064E071E080E0BBC02F
:100B4000913209F0FCC0833269F48F89988DA0E05E
:100B5000B0E08093000190930101A0930201B09353
:100B6000030164C0803269F48091E80082FFFCCF09
:100B700067E084E091E00E9473018BEF8093E800CE
:100B800055C0823209F052C08F8980930B01EEEF7D
:100B9000FFE7859194918B3F9C4D19F0E0E0F8E0E0
:100BA00002C0EEEFFAE08091040190910501A0915E
:100BB0000601B0910701803B9440A105B10509F001
:100BC0009EC080910B0180FF79C099C00E947F0B6D
:100BD000FC01028113810115110509F4B0C0D8018F
:100BE000ED91FC910190F081E02DBE016B5E7F4F95
:100BF000C801099581111AC0F80100851185EBCF54
:100C0000F1E0FF1609F44EC0F3E0FF1298C08F899F
:100C1000882309F44AC0823089F440E86BE08DE80B
:100C200091E00E943E01882309F489C08EEF8093F1
:100C3000E80088C018161906CCF381C0813029F469
:100C400040E868E084E891E0ECCF833009F077C0B9
:100C50000E947F0BDC011296ED90FC9013978E01A1
:100C60000F5F1F4F6801E114F10479F0D701ED9196
:100C7000FC910680F781E02DB801C7010995080FA6
:100C8000111DF701E084F184EECFD8011C92F6012A
:100C900001900020E9F73197BF016C197D0940E010
:100CA000C601BFCF62E771E002C06EE671E0FB01F2
:100CB000449150E080E80E942A04B8CFEE3F2AE039
:100CC000F20751F0808191818737A7E79A0721F0D9
:100CD0009093FF0A8093FE0A87E797E791838083CA
:100CE000809160008093A4019BE088E10FB6F894A6
:100CF000A895809360000FBE9093600097CF80818D
:100D000091818737974709F091CFA895809160002E
:100D10008861809360008091A40180936000EE3F21
:100D2000BAE0FB0739F08091FE0A9091FF0A9183A7
:100D300080837CCF1092FF0A1092FE0A77CF81E267
:100D40008093EB006C960FB6F894DEBF0FBECDBF5C
:100D5000DF91CF91FF91EF91BF91AF919F918F91D3
:100D60007F916F915F914F913F912F911F910F91C3
:100D7000FF90EF90DF90CF900F900FBE0F901F90DD
:100D800018952FB7F89487708093E9009091E80048
:100D9000892F807295FF04C09091F20080E4891B36
:100DA0002FBF08957F928F929F92AF92BF92CF9262
:100DB000DF92EF92FF920F931F93CF93DF93C82E92
:100DC0008B017A018091A901811103C08FEF9FEF00
:100DD00074C08091A60180FF05C08091E000826010
:100DE0008093E000CE2DDF2DD12C8AEFB82E8C2DF4
:100DF0008770982E8C2D8072882E8C2D8074782E82
:100E00009AE3A92E209719F4DD2009F451C08C2D06
:100E10000E94C10681110AC0BA94BB20B9F261E0F8
:100E200070E080E090E00E94A501ECCF282F30E038
:100E3000C217D3070CF48C2F9FB7F8949092E90057
:100E40002091E80025FF32C0282F30E0C21BD30BD1
:100E5000882029F08150A0F01092F100FBCFF8011A
:100E6000C7FE0AC0815050F044914093F100319682
:100E7000F9CF41914093F1008150D8F7020F131F31
:100E8000DD2019F0A092E8000AC08091E80085FDFD
:100E900008C0A092E800DD24D394209739F0D12C2B
:100EA00005C0209719F47110A092E8009FBFAACF47
:100EB0005D9884E68093A701C701DF91CF911F91D0
:100EC0000F91FF90EF90DF90CF90BF90AF909F90E9
:100ED0008F907F9008951F920F920FB60F9211245A
:100EE0002F933F938F939F93AF93BF9380919801DC
:100EF00090919901A0919A01B0919B013091970135
:100F000026E0230F2D3720F40296A11DB11D05C048
:100F100029E8230F0396A11DB11D2093970180930B
:100F2000980190939901A0939A01B0939B018091AD
:100F30009C0190919D01A0919E01B0919F0101960D
:100F4000A11DB11D80939C0190939D01A0939E01D2
:100F5000B0939F01BF91AF919F918F913F912F913E
:100F60000F900FBE0F901F9018950F931F93CF9364
:100F7000DF93EC0188819981009729F02A813B81D8
:100F80002617370788F48B016F5F7F4F0E94A90FE8
:100F9000009761F0998388831B830A832C813D81AC
:100FA000232B11F4FC01108281E001C080E0DF916D
:100FB000CF911F910F910895EF92FF920F931F937E
:100FC000CF93DF93EC017B018A01BA010E94B50740
:100FD0002881398181110DC02115310519F0C90110
:100FE0000E94200F198218821D821C821B821A8285
:100FF00006C01D830C83B701C9010E949110CE0168
:10100000DF91CF911F910F91FF90EF900895CF93B3
:10101000DF9300D0CDB7DEB7FC01118210821382BE
:1010200012821582148269831A82BE016F5F7F4F1C
:10103000FB0101900020E9F73197AF01461B570BE8
:101040000E94DC070F900F90DF91CF910895CF920F
:10105000DF92EF92FF920F931F93CF93DF93CDB761
:10106000DEB72C970FB6F894DEBF0FBECDBF188643
:101070001F821A8619861C861B8660915302709106
:1010800054026115710541F0409157025091580288
:10109000CE0107960E94DC07CB84DC84C114D10406
:1010A00009F4DBC0EF80F884F7018081882309F41C
:1010B000D4C000E010E00C151D0518F4E114F10493
:1010C00029F410929401E4E9F1E003C0F701E00F84
:1010D000F11F8081082E000C990B0E947710892B3C
:1010E00009F44FC0E114F10439F0A601B70189E514
:1010F00092E00E94DC0714C08091590290915A023C
:10110000009711F00E94200F10925A02109259027B
:1011100010925E0210925D0210925C0210925B02CD
:101120008B859C850817190720F48F819885009777
:1011300029F410929401E4E9F1E003C0FC01E00F0E
:10114000F11F6081CE0101960E9407088D819E816A
:10115000E980FA80892B41F065E571E0C7010E94C2
:10116000881011E0892B09F010E0C7010E94200FC0
:10117000112321F081E0809395016FC010929501B9
:101180006CC00F5F1F4F0630110509F094CF00E0CF
:1011900010E08B859C850817190720F4EF81F885EE
:1011A000309729F410929401E4E9F1E002C0E00FD5
:1011B000F11F6081CE0101960E9407088D819E81FA
:1011C000C980DA80892B49F067E571E0C6010E9489
:1011D0008810FF24F394892B09F0F12CC6010E949A
:1011E000200F0F5F1F4F0230110599F6FF20A9F164
:1011F00089E591E00E94380B69E087E492E00E9463
:101200001B034B855C856F81788587E492E00E94A3
:10121000E90262E370E080E090E00E94A50169E0ED
:1012200087E492E00E941B0340915D0250915E02B0
:101230006091590270915A0287E492E00E94E9029B
:1012400080919501882321F080E691E00E94380B7F
:1012500069E087E492E00E941B038F8198850E94D9
:10126000200F40E050E061E671E083E592E00E94EB
:10127000DC072C960FB6F894DEBF0FBECDBFDF9112
:10128000CF911F910F91FF90EF90DF90CF90089535
:101290001F920F920FB60F9211242F933F934F93EB
:1012A0005F936F937F938F939F93AF93BF93EF93CE
:1012B000FF938AEA91E00E945002FF91EF91BF9163
:1012C000AF919F918F917F916F915F914F913F91DE
:1012D0002F910F900FBE0F901F9018951F920F9295
:1012E0000FB60F9211242F938F939F93EF93FF9339
:1012F000E091BA01F091BB018081E091C001F091D1
:10130000C10182FD12C090818091C3018F5F8F73F4
:101310002091C401821751F0E091C301F0E0E6553D
:10132000FE4F958F8093C30101C08081FF91EF91A3
:101330009F918F912F910F900FBE0F901F90189536
:101340002091A901211103C08FEF9FEF08955FB78E
:10135000F89422E02093E9002091F20030E0121688
:10136000130614F421E030E0422FFC0184E64150E2
:1013700038F028988093A8019091F1009193F7CFCD
:101380002115310521F08091F200882319F05FBF0B
:10139000C90108958BE68093E800F9CFDC01FB01D9
:1013A00012968C91129790E02481358182179307D1
:1013B000D1F491818081813A31F481E0913091F0D2
:1013C000933089F411C0813271F49B3021F4828111
:1013D0001F968C9305C09A3031F4828150968C937D
:1013E00081E00895089580E00895DC01FB0188E420
:1013F000808389E4818384E482831D969C911D9778
:101400009F709F5B93831D968D919C911E9724E006
:10141000969587952A95E1F78F708F5B848385E099
:101420000895FC0182818F5BFB01808381E0089538
:10143000CF93DF931F92CDB7DEB76983DC01ED91C7
:10144000FC910280F381E02D41E050E0BE016F5F2E
:101450007F4F09950F90DF91CF91089583E080939E
:10146000E9008091F200882319F08AE38093E80074
:101470000895CF93DF931F92CDB7DEB7FC0184852B
:10148000958597FD05C02FEF3FEF358724870BC06B
:10149000CE0101960E94A009019719F4898190E07C
:1014A00002C08FEF9FEF0F90DF91CF9108950F93C0
:1014B0001F93CF93DF931F92CDB7DEB78C01FC0152
:1014C0008485958597FF0EC0CE0101960E94A009E4
:1014D000019719F4898190E002C08FEF9FEFF80126
:1014E00095878487F801848595850F90DF91CF914A
:1014F0001F910F910895FC018485958597FD0BC080
:101500009FB7F89482E08093E9008091F2009FBF3A
:1015100090E0019608959FB7F89482E08093E900E7
:101520008091F2009FBF90E00895CF93DF93EC018C
:1015300080910B01882331F083E00E94D2061816B7
:10154000190634F081E090E09B838A8380E090E08C
:10155000DF91CF910895EF92FF920F931F93CF9356
:10156000DF93FB012081213851F52381223239F5A7
:10157000DC0112962C9130E04481558142175307CB
:10158000F1F4EC010B851C85E12CF12C0115110502
:1015900091F0F801448155816281738180E80E9455
:1015A0002A048F3FFFEF9F0769F0E80EF91ED8016C
:1015B0000D911C91EBCF81E08F87C70105C080E0C2
:1015C00090E002C08FEF9FEFDF91CF911F910F91BD
:1015D000FF90EF900895CF93DF93CDB7DEB7699773
:1015E0000FB6F894DEBF0FBECDBFFC01DB018C91BE
:1015F0008F5F8C93BE016F5F7F4F89E1DB011D928E
:101600008A95E9F729E0298384E08A8391E09D8324
:1016100083E08E832A8721E22B879C879D879F8783
:1016200022E2288B27E02B8B25E02C8B8E8B20E46D
:1016300030E0388F2F8B998F82818B8395858685BB
:10164000998B8A8B838180688D8B49E150E080E0A3
:101650000E942A0469960FB6F894DEBF0FBECDBF74
:10166000DF91CF91089583E00E94C10690E0089534
:10167000009769F0FC0101900020E9F73197AF0174
:10168000481B590BBC0187E492E00C94E90280E00E
:1016900090E008950F931F93CF93DF93009711F479
:1016A00080E028C0FC0101900020E9F73197E81B99
:1016B000F90BF9F08C01C0915702D0915802CE0F6E
:1016C000DF1FBE0183E592E00E94B507882341F346
:1016D0002091530230915402809157029091580208
:1016E000B801820F931F0E949110D0935802C093AB
:1016F000570281E0DF91CF911F910F910895809162
:10170000630281110DC082E080935F0284E08093C8
:101710006002109262021092610281E08093630283
:101720008FE592E0089581E08093BF028093C0022C
:1017300025EC32E03093C2022093C1021092C40221
:101740001092C3022DE131E03093BC022093BB0222
:101750001092C7021092C6021092C9021092C802DB
:101760008093CA028093CB0281EC8093C5020E94D1
:101770007F0BFC0121818091BF0290E0820F911DBF
:101780000897C4F5A281B381109729F48BEB92E0FE
:10179000938382830EC018968D919C911997009720
:1017A00011F0DC01F8CF8BEB92E019969C938E93AD
:1017B000189780818093BD0281818093BE029081C1
:1017C0008091C002890F808380E09091BF028917C9
:1017D00088F4A091C102B091C202A80FB11D9C91E2
:1017E000A181B0E0A45FBE4F9C9391819F5F9183E4
:1017F0008F5FEBCF08950F931F93CF93DF931F92CB
:10180000CDB7DEB78C018091CC02811105C00E945A
:10181000930B81E08093CC0282E0898341E050E029
:10182000BE016F5F7F4F8091BE020E94D20697FD7E
:1018300008C08091BE0248E050E0B80180640E9478
:10184000D2060F90DF91CF911F910F910895CF9302
:10185000DF9300D0CDB7DEB7789484B5826084BDC5
:1018600084B5816084BD85B5826085BD85B58160A4
:1018700085BD80916E00816080936E001092810022
:1018800080918100826080938100809181008160DD
:10189000809381008091800081608093800080919E
:1018A000910082608093910080919100816080938B
:1018B0009100809190008160809390008091C100A0
:1018C00084608093C1008091C10082608093C100D8
:1018D0008091C10081608093C1008091C3008160CC
:1018E0008093C3008091C00082608093C00080918B
:1018F000C20081608093C20080917A0084608093EE
:101900007A0080917A00826080937A0080917A00D8
:101910008E7F80937A0080917A00806880937A002D
:101920001092A9011092A5011092A6018091D700F2
:1019300081608093D70080EA8093D80089B58F7E3C
:1019400089BD89B5826089BD09B400FEFDCF61E023
:1019500070E080E090E00E94A5018091D8008F7C2B
:1019600080618093D8008091E000807F8093E000C8
:101970008091E1008E7E8093E1008DE08093E20013
:10198000559A209AE091BA01F091BB0182E08083E0
:10199000E091B601F091B7011082E091B801F091A9
:1019A000B90187E680831092C201E091BE01F091F7
:1019B000BF0186E08083E091BC01F091BD01808190
:1019C00080618083E091BC01F091BD0180818860DD
:1019D0008083E091BC01F091BD01808180688083AB
:1019E000E091BC01F091BD0180818F7D8083FF2457
:1019F000F3948AEA91E00E943A02181619060CF054
:101A000067C08AEA91E00E9418028B31910519F4AF
:101A1000F09296015DC020919601213061F58D34E0
:101A20009105C9F04CF48834910591F08B349105FF
:101A3000D9F48EE691E01AC08435910579F08B35A2
:101A4000910579F08035910579F487E691E00EC033
:101A500082E691E00BC085E791E008C08DE791E058
:101A600005C085E891E002C08FE891E00E944A0B32
:101A7000109296012DC09C012B7F2930310519F45D
:101A80000E94270825C08A30910511F189831A82A6
:101A900000915702109158020F5F1F4FB80183E564
:101AA00092E00E94B507882399F02091530230916B
:101AB00054028091570290915802BE016F5F7F4F90
:101AC000820F931F0E9491101093580200935702A7
:101AD0000E94DF028ECF80915302909154020E94A7
:101AE000200F8091590290915A020C94200F10926D
:101AF0006E0210926D0288EE93E0A0E0B0E0809359
:101B00006F0290937002A0937102B093720229E267
:101B100031E030936C0220936B022FEF3FEF309354
:101B20007802209377021092AD011092AC0180935D
:101B3000AE019093AF01A093B001B093B1018BE3DC
:101B400091E09093AB018093AA018DEC90E090938B
:101B5000B7018093B6018CEC90E09093B90180932B
:101B6000B80188EC90E09093BB018093BA0189ECB6
:101B700090E09093BD018093BC018AEC90E090933B
:101B8000BF018093BE018EEC90E09093C1018093E1
:101B9000C0011092C3011092C4011092C5011092AD
:101BA000C60110924A02109249028DE491E090938E
:101BB0004802809347028091DA02811113C010928B
:101BC000D5021092D40289E991E09093D7028093D4
:101BD000D6028FE290E09093D9028093D80281E000
:101BE0008093DA028091CC02811105C00E94930B90
:101BF00081E08093CC02E091C602F091C702309759
:101C000039F484ED92E09093C7028093C6020AC033
:101C100080819181009711F0FC01FACF84ED92E070
:101C2000918380832091C8023091C9028091D802AB
:101C30009091D902820F931F9093C9028093C8029A
:101C400010925A021092590210925C0210925B029A
:101C500010925E0210925D0240E050E061E671E099
:101C600089E592E00E94DC07109254021092530220
:101C7000109256021092550210925802109257027A
:101C800040E050E061E671E083E592E00C94DC070F
:101C90009927882708952F923F924F925F926F92D3
:101CA0007F928F929F92AF92BF92CF92DF92EF92EC
:101CB000FF920F931F93CF93DF93CDB7DEB7CA1B6D
:101CC000DB0B0FB6F894DEBF0FBECDBF09942A8898
:101CD000398848885F846E847D848C849B84AA8440
:101CE000B984C884DF80EE80FD800C811B81AA81CD
:101CF000B981CE0FD11D0FB6F894DEBF0FBECDBF98
:101D0000ED010895EE0FFF1F0590F491E02D099469
:101D10000F931F93CF93DF938230910510F482E0ED
:101D200090E0E091E402F091E50220E030E0A0E0F4
:101D3000B0E0309719F14081518102811381481739
:101D40005907C8F08417950769F4109731F0129677
:101D50000C93129713961C9327C00093E4021093E0
:101D6000E50222C02115310519F04217530718F476
:101D70009A01BD01EF01DF01F801DBCF211531052B
:101D8000F9F0281B390B2430310580F48A819B81BE
:101D90006115710521F0FB019383828304C0909348
:101DA000E5028093E402FE01329644C0FE01E20F98
:101DB000F31F8193919322503109398328833AC0CC
:101DC0002091E2023091E302232B41F4209115018E
:101DD000309116013093E3022093E2022091130127
:101DE000309114012115310541F42DB73EB74091D2
:101DF000170150911801241B350BE091E202F0917C
:101E0000E302E217F307A0F42E1B3F0B2817390754
:101E100078F0AC014E5F5F4F2417350748F04E0F46
:101E20005F1F5093E3024093E2028193919302C0BB
:101E3000E0E0F0E0CF01DF91CF911F910F91089585
:101E4000CF93DF93009709F481C0FC01329713828E
:101E50001282A091E402B091E502109781F42081F2
:101E60003181820F931F2091E2023091E302281703
:101E7000390751F5F093E302E093E20267C0ED0108
:101E800020E030E0CE17DF0740F44A815B819E01FD
:101E900041155105F1F0EA01F5CFD383C2834081AA
:101EA0005181840F951FC817D90759F488819981EA
:101EB000840F951F0296918380838A819B819383EF
:101EC00082832115310529F4F093E502E093E402C1
:101ED0003DC0E901FB83EA8349915991C40FD51FA5
:101EE000EC17FD0761F480819181840F951F0296A4
:101EF000E90199838883828193819B838A83E0E0CF
:101F0000F0E012968D919C911397009719F0FD01C6
:101F1000DC01F7CF8D919C9111979D012E5F3F4F72
:101F2000820F931F2091E2023091E30228173907B4
:101F300069F4309729F41092E5021092E40202C08D
:101F400013821282B093E302A093E202DF91CF9159
:101F50000895A0E0B0E0EFEAFFE00C944F0EEC0132
:101F6000009721F4CB010E94880EB4C0FC01E60F5B
:101F7000F71F9C0122503109E217F30708F4A8C0AB
:101F8000D9010D911C91119706171707B0F0053074
:101F9000110508F49BC0C80104978617970708F439
:101FA00095C002501109061B170B019311936D93F5
:101FB0007C93CF010E94200F89C05B01A01AB10A57
:101FC0004C01800E911EA091E402B091E502612CBB
:101FD000712CE12CF12C109709F446C08D919C9145
:101FE0001197A815B905B1F56C0142E0C40ED11CDA
:101FF000CA14DB0478F14C018A189B08640142E0A2
:10200000C40ED11C1296BC9012971396AC91B5E0F9
:10201000CB16D10440F0B282A38391828082D90191
:102020006D937C9309C00E5F1F4F800F911FF901C4
:1020300091838083EB2DFA2FE114F10431F0D70165
:102040001396FC93EE93129741C0F093E502E09350
:10205000E4023CC06816790608F43C017D01129642
:102060000D90BC91A02DB7CF8091E2029091E30238
:1020700088169906E1F466167706C8F48091130174
:1020800090911401009741F48DB79EB740911701CC
:1020900050911801841B950BE817F907C8F4F093C9
:1020A000E302E093E202F901718360830FC0CB0188
:1020B0000E94880E7C01009759F0A801BE010E9481
:1020C0007F10CE010E94200FC70104C0CE0102C0C4
:1020D00080E090E0CDB7DEB7EEE00C946B0E81E0CF
:1020E00090E0F8940C94981085FD0C94480E806252
:1020F00091110C94480E81568A51D8F70895FB012E
:10210000DC0102C001900D9241505040D8F7089573
:10211000FB01DC018D91019080190110D9F3990B1D
:102120000895FB01DC0101900D920020E1F7089574
:1021300010E0C5EED0E004C0FE010E94820E2196A0
:0A214000C63ED107C9F7F894FFCF9F
:10214A00FFFFFFFF00E100000000000000C18081E6
:10215A000000000000E602200000000000CE09EBAB
:10216A000AAB0AF50900000000180A950A330B2E7B
:10217A000A7B0A390A570A000000007102DF0109C6
:10218A0002BD023A0218022C02000000001B03E9F9
:10219A00021603150365003000464350534F4E00A4
:1021AA002D005B55705D005B446F776E5D005B4C84
:1021BA006566745D005B52696768745D005B5072A6
:1021CA00696E745D005B57696E646F77735D005B5F
:0421DA003F5D000065
:00000001FF
