:100000000C94E6000C940E010C940E010C940E015D
:100010000C940E010C940E010C940E010C940E0124
:100020000C940E010C940E010C942E090C94A00952
:100030000C940E010C940E010C940E010C940E0104
:100040000C940E010C940E010C940E010C940E01F4
:100050000C940E010C940E010C940E010C942D04C2
:100060000C940E010C94F5050C94CF050C940E0124
:100070000C940E010C940E010C940E010C940E01C4
:100080000C940E010C940E010C940E010C940E01B4
:100090000C940E010C940E010C940E010C940E01A4
:1000A0000C940E010C940E010C940E010000000043
:1000B000000000002A2B28000000000000000000C3
:1000C0000000000000000000000000002C9EB4A012
:1000D000A1A2A434A6A7A5AE362D3738271E1F200F
:1000E000212223242526B333B62EB7B89F848586D4
:1000F0008788898A8B8C8D8E8F9091929394959618
:100100009798999A9B9C9D2F3130A3AD3504050695
:100110000708090A0B0C0D0E0F10111213141516F7
:100120001718191A1B1C1DAFB1B0B500080B00023F
:10013000020201000904000001020200000524007F
:100140001001052401010104240206052406000112
:100150000705810310004009040100020A000000A5
:100160000705020240000007058302400000040367
:10017000090412010002EF0201404F1B0892000126
:1001800001020301537061726B46756E004C696C1D
:1001900079506164205553420005010906A101858B
:1001A00002050719E029E715002501750195088169
:1001B00002950175088103950675081500257305DC
:1001C00007190029738100C0280D220D11241FBEBC
:1001D000CFEFDAE0DEBFCDBF22E0AEE8B1E001C094
:1001E0001D92A93DB207E1F711E0A0E0B1E0E8E619
:1001F000F0E202C005900D92AE38B107D9F710E0D9
:10020000C5EED0E004C02197FE010E941C0EC43E42
:10021000D107C9F70E94DE0B0C9427100C94000044
:100220003FB7F8948091950190919601A091970124
:10023000B091980126B5A89B05C02F3F19F00196F3
:10024000A11DB11D3FBFBA2FA92F982F8827820F5C
:10025000911DA11DB11DBC01CD0143E0660F771FAB
:10026000881F991F4A95D1F708958F929F92AF9258
:10027000BF92CF92DF92EF92FF926B017C010E94BE
:1002800010014B015C01C114D104E104F104F1F04F
:100290000E941001DC01CB0188199909AA09BB0948
:1002A000883E9340A105B10570F321E0C21AD10840
:1002B000E108F10888EE880E83E0981EA11CB11CAD
:1002C000C114D104E104F10419F7DDCFFF90EF90E0
:1002D000DF90CF90BF90AF909F908F900895CF9276
:1002E000DF92EF92FF920F931F93CF93DF936C01F6
:1002F0007A018B01C0E0D0E0CE15DF0581F0D80196
:100300006D918D01D601ED91FC910190F081E02D70
:10031000C6010995892B11F02196EECF7E01C70108
:10032000DF91CF911F910F91FF90EF90DF90CF90D1
:100330000895FC01538D448D252F30E0842F90E0EB
:10034000821B930B541710F0CF96089501970895D0
:10035000FC01918D828D981761F0828DDF01A80FCD
:10036000B11D5D968C91928D9F5F9F73928F90E0EF
:1003700008958FEF9FEF0895FC01918D828D98175E
:1003800031F0828DE80FF11D858D90E008958FEF9B
:100390009FEF0895FC01918D228D892F90E0805C64
:1003A0009F4F821B91098F739927089582EA91E0EC
:1003B0000E94CA0121E0892B09F420E0822F0895D0
:1003C000FC01848DDF01A80FB11DA35ABF4F2C91F2
:1003D000848D90E001968F739927848FA689B789C1
:1003E0002C93A089B1898C9182748C93938D848D88
:1003F000981306C00288F389E02D80818F7D808369
:100400000895EF92FF920F931F93CF93DF93EC0128
:1004100081E0888F9B8D8C8D981305C0E889F989C0
:10042000808185FD26C0F62E0B8D10E00F5F1F4FDB
:100430000F731127E02E8C8DE8120CC00FB607FC4D
:10044000FACFE889F989808185FFF5CFCE010E9436
:10045000E001F1CF8B8DFE01E80FF11DE35AFF4F54
:10046000F0829FB7F8940B8FEA89FB8980818062C4
:1004700009C09FB7F894EE89FF896083E889F989FC
:100480008081827480839FBF81E090E0DF91CF9173
:100490001F910F91FF90EF900895CF93DF93EC01A0
:1004A000888D8823C9F0EA89FB89808185FD05C094
:1004B000A889B9898C9186FD0FC00FB607FCF5CFCE
:1004C000808185FFF2CFA889B9898C9185FFEDCF16
:1004D000CE010E94E001E7CFDF91CF91089580E047
:1004E00090E0892B29F00E94D60181110C94000024
:1004F0000895CF92DF92EF92FF920F931F93CF93C5
:10050000DF936C01EB017B01E40EF51E00E010E0CF
:10051000CE15DF0581F069916D30D1F3D601ED91F3
:10052000FC910190F081E02DC6010995892B19F00D
:100530000F5F1F4FEDCFC801DF91CF911F910F913A
:10054000FF90EF90DF90CF900895089580E090E0C5
:1005500008950E940910EF92FF921F93CF93DF93AB
:10056000EC01162F683818F0E8E7E60F23C0E62FF5
:10057000F0E067FF0DC0E058F10981E090E001C0B4
:10058000880FEA95EAF79C81892B8C83E0E012C002
:10059000E455FF4FE491E11107C081E090E09B83B7
:1005A0008A83E12CF12C3CC0E7FF04C08C8182607F
:1005B0008C83EF778E818E1739F18F81E81721F1C7
:1005C0008885E81709F18985E817F1F08A85E81729
:1005D000D9F08B85E817C1F0DE01169680E090E037
:1005E0002D91211106C0DE01A80FB91F1696EC93BC
:1005F0000BC001968630910599F781E090E09B83CE
:100600008A83E12CF12C07C0CE0104960E94CD080C
:10061000EE24E394F12C183818F0E8E7E10F1DC040
:10062000E12FF0E017FF0EC0E058F10981E090E003
:1006300001C0880FEA95EAF780959C8189238C8315
:10064000E0E00BC0E455FF4FE491EE23D1F0E7FF6B
:1006500004C08C818D7F8C83EF77DE0186E0EE23F2
:1006600041F016969C911697E91303C016961C92BA
:100670001697815011968111F2CFCE0104960E94F7
:10068000CD08C701DF91CF911F91FF90EF900895A2
:1006900040919B0150919C012091990130919A01C8
:1006A00042175307B4F49091E8009570E1F39091EC
:1006B000E80092FD19C08093F10080919B01909118
:1006C0009C0101968F739927892B19F48EEF8093E3
:1006D000E80080919B0190919C01019690939C0170
:1006E00080939B0181E0089580E008952FB7F894EE
:1006F00087708093E9009091E800892F807295FFC0
:1007000004C09091F20080E4891B2FBF08957F926E
:100710008F929F92AF92BF92CF92DF92EF92FF9211
:100720000F931F93CF93DF93C82E8B017A01809193
:10073000A101811103C08FEF9FEF74C080919E01D2
:1007400080FF05C08091E00082608093E000CE2DA4
:10075000DF2DD12C8AEFB82E8C2D8770982E8C2D02
:100760008072882E8C2D8074782E9AE3A92E209783
:1007700019F4DD2009F451C08C2D0E9476038111FB
:100780000AC0BA94BB20B9F261E070E080E090E06A
:100790000E943501ECCF282F30E0C217D3070CF4AC
:1007A0008C2F9FB7F8949092E9002091E80025FFE4
:1007B00032C0282F30E0C21BD30B882029F0815093
:1007C000A0F01092F100FBCFF801C7FE0AC08150E3
:1007D00050F044914093F1003196F9CF419140930C
:1007E000F1008150D8F7020F131FDD2019F0A092FD
:1007F000E8000AC08091E80085FD08C0A092E800EA
:10080000DD24D394209739F0D12C05C0209719F41A
:100810007110A092E8009FBFAACF5D9884E68093F4
:100820009F01C701DF91CF911F910F91FF90EF9032
:10083000DF90CF90BF90AF909F908F907F90089562
:10084000615030F02091F100FC0120830196F8CF37
:10085000289884E68093A00108951F920F920FB606
:100860000F9211242F933F938F939F93AF93BF9336
:100870008091910190919201A0919301B091940186
:100880003091900126E0230F2D3720F40296A11D10
:10089000B11D05C029E8230F0396A11DB11D2093AA
:1008A00090018093910190939201A0939301B09352
:1008B00094018091950190919601A0919701B0913A
:1008C00098010196A11DB11D809395019093960109
:1008D000A0939701B0939801BF91AF919F918F9191
:1008E0003F912F910F900FBE0F901F9018950F936F
:1008F0001F93CF93DF93EC0188819981009729F0B2
:100900002A813B812617370788F48B016F5F7F4F61
:100910000E94430F009761F0998388831B830A83A9
:100920002C813D81232B11F4FC01108281E001C058
:1009300080E0DF91CF911F910F910895EF92FF9288
:100940000F931F93CF93DF93EC017B018A01BA01D0
:100950000E9477042881398181110DC0211531054C
:1009600019F0C9010E94BA0E198218821D821C82D8
:100970001B821A8206C01D830C83B701C9010E9425
:100980002010CE01DF91CF911F910F91FF90EF903A
:100990000895AF92BF92DF92EF92FF920F931F9351
:1009A000CF93DF93CDB7DEB72E970FB6F894DEBFA7
:1009B0000FBECDBF18861F821A8619861C861B861D
:1009C00060914B0270914C026115710541F04091AC
:1009D0004F0250915002CE0107960E949E048B85D3
:1009E0009C85892B09F4BFC0EF81F885808188231D
:1009F00009F4B9C000E010E07E018DE0E80EF11CC2
:100A00008B859C850817190720F4EF81F8853097AE
:100A100029F410928E01EEE8F1E002C0E00FF11F20
:100A200080811A8219821C821B821E821D828D8700
:100A30001E86F70101900020E9F73197AF014E19AA
:100A40005F09B701CE0101960E949E048D819E81AF
:100A5000A980BA80892B49F065E571E0C5010E9443
:100A60001710DD24D394892B09F0D12CC5010E94E5
:100A7000BA0E0F5F1F4F0230110511F6DD2049F14C
:100A800069E08FE392E00E94AB0262E370E080E0F5
:100A900090E00E94350145E050E067E571E08FE3AA
:100AA00092E00E94790262E370E080E090E00E94B0
:100AB00035014B855C856F8178858FE392E00E94DC
:100AC000790262E370E080E090E00E94350169E025
:100AD00046C04B855C856F8178858FE392E00E94EC
:100AE000790262E370E080E090E00E94350169E005
:100AF0008FE392E00E94AB0262E370E080E090E05E
:100B00000E94350169E08FE392E00E94AB0262E34C
:100B100070E080E090E00E94350169E08FE392E0B0
:100B20000E94AB0262E370E080E090E00E94350139
:100B30006FE68FE392E00E94AB0262E370E080E038
:100B400090E00E94350160EB8FE392E00E94AB02DF
:100B500062E370E080E090E00E94350160EB8FE39B
:100B600092E00E94AB028F8198850E94BA0E40E00D
:100B700050E066E571E08BE492E00E949E042E96C0
:100B80000FB6F894DEBF0FBECDBFDF91CF911F919E
:100B90000F91FF90EF90DF90BF90AF9008951F925C
:100BA0000F920FB60F9211242F933F934F935F93A1
:100BB0006F937F938F939F93AF93BF93EF93FF9325
:100BC00082EA91E00E94E001FF91EF91BF91AF9125
:100BD0009F918F917F916F915F914F913F912F9155
:100BE0000F900FBE0F901F9018951F920F920FB687
:100BF0000F9211242F938F939F93EF93FF93E09184
:100C0000B201F091B3018081E091B801F091B90196
:100C100082FD12C090818091BB018F5F8F73209104
:100C2000BC01821751F0E091BB01F0E0EE55FE4FA0
:100C3000958F8093BB0101C08081FF91EF919F91BF
:100C40008F912F910F900FBE0F901F9018952091AC
:100C5000A101211103C08FEF9FEF08955FB7F894B2
:100C600022E02093E9002091F20030E012161306F2
:100C700014F421E030E0422FFC0184E6415038F0CA
:100C800028988093A0019091F1009193F7CF2115BE
:100C9000310521F08091F200882319F05FBFC9016E
:100CA00008958BE68093E800F9CFDC01FB011296F2
:100CB0008C91129790E02481358182179307D1F4AB
:100CC00091818081813A31F481E0913091F09330CB
:100CD00089F411C0813271F49B3021F482811F9616
:100CE0008C9305C09A3031F4828150968C9381E0C8
:100CF0000895089580E00895DC01FB0188E4808375
:100D000089E4818384E482831D969C911D979F7062
:100D10009F5B93831D968D919C911E9724E09695E1
:100D200087952A95E1F78F708F5B848385E008951E
:100D30008091560281110DC082E08093520284E0BE
:100D400080935302109255021092540281E08093D6
:100D5000560282E592E00895CF93DF9381E080937D
:100D6000B2028093B30228EB32E03093B5022093B5
:100D7000B4021092B7021092B6022DE131E0309326
:100D8000AF022093AE021092BA021092B9021092F2
:100D9000BC021092BB028093BD028093BE0281EC24
:100DA0008093B8020E949806FC0121818091B202D2
:100DB00090E0820F911D0897C4F5A281B38110972E
:100DC00029F48EEA92E0938382830EC018968D9167
:100DD0009C911997009711F0DC01F8CF8EEA92E010
:100DE00019969C938E93189780818093B00281818D
:100DF0008093B10290818091B302890F808380E05B
:100E00009091B202891788F49181A92FB0E0A45F74
:100E1000BE4FC091B402D091B502C80FD11D288138
:100E20002C939F5F91838F5FEBCFDF91CF910895DC
:100E3000FC0182818F5BFB01808381E00895CF9369
:100E4000DF931F92CDB7DEB76983DC01ED91FC9192
:100E50000280F381E02D41E050E0BE016F5F7F4FE3
:100E600009950F90DF91CF91089583E08093E90079
:100E70008091F200882319F08AE38093E8000895B6
:100E8000CF93DF931F92CDB7DEB7FC0184859585A4
:100E900097FD05C02FEF3FEF358724870BC0CE01AC
:100EA00001960E942706019719F4898190E002C0FB
:100EB0008FEF9FEF0F90DF91CF9108950F931F93C6
:100EC000CF93DF931F92CDB7DEB78C01FC018485F1
:100ED000958597FF0EC0CE0101960E9427060197C7
:100EE00019F4898190E002C08FEF9FEFF801958798
:100EF0008487F801848595850F90DF91CF911F91AC
:100F00000F910895FC018485958597FD0BC09FB7CF
:100F1000F89482E08093E9008091F2009FBF90E016
:100F2000019608959FB7F89482E08093E90080913C
:100F3000F2009FBF90E00895CF93DF93EC01809182
:100F40000B01882331F083E00E94870318161906ED
:100F500034F081E090E09B838A8380E090E0DF9131
:100F6000CF91089583E00E94760390E00895DF9288
:100F7000EF92FF920F931F93CF93DF93D82EF92E0A
:100F8000E42E062F10E0C8010196880F0E94480346
:100F900083E00E944803CD2DDF2D0C0F1D1FC017CD
:100FA000D10789F0E7FE03C0FE01849101C088816A
:100FB0000E944803F82E80E00E9448038F2121966A
:100FC0008111EDCF01C081E0DF91CF911F910F9191
:100FD000FF90EF90DF900895DF92EF92FF920F93D2
:100FE0001F93CF93DF93D82E8A017B01E40EF51E69
:100FF000EB01CE15DF0571F0D7FE03C0FE01849131
:1010000001C088810E94480321968111F2CF8FEFA1
:101010009FEF01C0C801DF91CF911F910F91FF9009
:10102000EF90DF900895EF92FF920F931F93CF936D
:10103000DF93FB012081213851F52381223239F5DC
:10104000DC0112962C9130E0448155814217530700
:10105000F1F4EC010B851C85E12CF12C0115110537
:1010600091F0F801448155816281738180E80E948A
:10107000EC078F3FFFEF9F0769F0E80EF91ED801DC
:101080000D911C91EBCF81E08F87C70105C080E0F7
:1010900090E002C08FEF9FEFDF91CF911F910F91F2
:1010A000FF90EF900895CF93DF93CDB7DEB76997A8
:1010B0000FB6F894DEBF0FBECDBFFC01DB018C91F3
:1010C0008F5F8C93BE016F5F7F4F89E1DB011D92C3
:1010D0008A95E9F729E0298384E08A8391E09D835A
:1010E00083E08E832A8721E22B879C879D879F87B9
:1010F00022E2288B27E02B8B25E02C8B8E8B20E4A3
:1011000030E0388F2F8B998F82818B8395858685F0
:10111000998B8A8B838180688D8B49E150E080E0D8
:101120000E94EC0769960FB6F894DEBF0FBECDBFE4
:10113000DF91CF9108950F931F93CF93DF931F9269
:10114000CDB7DEB782E0898342E450E06CE271E023
:1011500080E80E94EC070E949806DC0112960D912F
:101160001C9113970115110589F0D801ED91FC919F
:101170000280F381E02DBE016F5F7F4FC8010995AA
:1011800097FD04C0F80100851185ECCF89810F908F
:10119000DF91CF911F910F9108950F931F93CF93DC
:1011A000DF931F92CDB7DEB78C018091BF02811112
:1011B00005C00E94AC0681E08093BF0282E0898373
:1011C00041E050E0BE016F5F7F4F8091B1020E940D
:1011D000870397FD08C08091B10248E050E0B80154
:1011E00080640E9487030F90DF91CF911F910F9130
:1011F00008950F931F93CF93DF93009711F480E02E
:1012000028C0FC0101900020E9F73197E81BF90B99
:10121000F9F08C01C0914F02D0915002CE0FDF1F28
:10122000BE018BE492E00E947704882341F3209171
:101230004B0230914C0280914F0290915002B801C4
:10124000820F931F0E942010D0935002C0934F0230
:1012500081E0DF91CF911F910F9108951F920F921E
:101260000FB60F9211248F939F938091E10090917C
:10127000E100937F9093E10083FF0FC01092E9009B
:1012800091E09093EB001092EC0092E39093ED00CC
:101290001092A10198E09093F00082FF20C093E0AB
:1012A0009093E9009091F200992319F09AE39093BA
:1012B000E80090919F01992339F090919F019150FE
:1012C00090939F01992389F19091A001992339F07E
:1012D0009091A00191509093A001992341F184FF36
:1012E00010C08091E2008E7E81608093E200809148
:1012F000E1008F7E8093E10080919E018E7E80616F
:1013000011C080FF16C08091E2008E7E80618093C4
:10131000E2008091E1008E7E8093E10080919E0149
:101320008E7E816080939E0104C05D9ACDCF289A05
:10133000D6CF9F918F910F900FBE0F901F90189551
:101340001F920F920FB60F921124CF92DF92EF925D
:10135000FF920F931F932F933F934F935F936F933E
:101360007F938F939F93AF93BF93EF93FF93CF930D
:10137000DF93CDB7DEB76C97DEBFCDBF1092E9002B
:101380008091E80083FFFBC168E0CE0145960E9492
:10139000200482EF8093E8008D8987FF05C090913B
:1013A000E80090FFFCCF03C09EEF9093E800982FD9
:1013B000907609F0C6C09E894F89588D2F89F88C88
:1013C00091110CC0803829F480919D018093F10027
:1013D00002C01092F1001092F10045C1913051F419
:1013E000811141C14130510509F03DC180919D01FC
:1013F0008D7F0BC0933061F4811135C141305105AF
:1014000009F031C180919D01826080939D012BC1C3
:10141000953049F48091E80080FFFCCF822F8068EE
:101420008093E30020C1963009F05EC00B8D1C8DC7
:1014300022E01092E90010929C0110929B01F2129E
:1014400032C010929A01109299010E949B0899E073
:10145000BE016F5F7F4FDB01E92F1D92EA95E9F72F
:101460009983FA8291E09E8390EA98879AEF998710
:1014700020919B0130919C01275F3F4F3C832B8340
:101480008D831092E90010929C0110929B011093A1
:101490009A010093990149E050E080E00E94EC0736
:1014A0000E949B08E0C010939A01009399010E944A
:1014B0009806DC0112960D911C91139701151105E8
:1014C00009F4BBC0D801ED91FC910480F581E02DB9
:1014D000BE016B5E7F4FC8010995009709F0C7C038
:1014E000F80100851185EACF973009F445C198309D
:1014F00021F481E08093F100B6C0993009F0B3C0C7
:10150000837009F039C1EDE0F1E081E031E096E36C
:101510002081211109C08EE78093EA001092EA0031
:101520008F898093A1019FC08093E9003093EB00E5
:1015300021912093EC009093ED008F5F873041F76D
:10154000EACF8B8D9C8D1092E90010929C01109235
:101550009B0190939A0180939901898D811153C0C9
:101560008E899D89913A49F4813209F005C147E09D
:1015700050E064E071E080E0BBC0913209F0FCC053
:10158000833269F48F89988DA0E0B0E080930001E8
:1015900090930101A0930201B093030164C08032D3
:1015A00069F48091E80082FFFCCF67E084E091E07D
:1015B0000E9420048BEF8093E80055C0823209F02E
:1015C00052C08F8980930B01EEEFFFE785919491D4
:1015D0008B3F9C4D19F0E0E0F8E002C0EEEFFAE03E
:1015E0008091040190910501A0910601B09107013D
:1015F000803B9440A105B10509F09EC080910B018C
:1016000080FF79C099C00E949806FC010281138175
:101610000115110509F4B0C0D801ED91FC910190BC
:10162000F081E02DBE016B5E7F4FC80109958111ED
:101630001AC0F80100851185EBCFF1E0FF1609F41F
:101640004EC0F3E0FF1298C08F89882309F44AC086
:10165000823089F440E86BE08DE891E00E94B707A2
:10166000882309F489C08EEF8093E80088C018169B
:101670001906CCF381C0813029F440E868E084E8A1
:1016800091E0ECCF833009F077C00E949806DC012E
:101690001296ED90FC9013978E010F5F1F4F68011B
:1016A000E114F10479F0D701ED91FC910680F78106
:1016B000E02DB801C7010995080F111DF701E0845D
:1016C000F184EECFD8011C92F60101900020E9F7D9
:1016D0003197BF016C197D0940E0C601BFCF62E7B9
:1016E00071E002C06EE671E0FB01449150E080E8D9
:1016F0000E94EC07B8CFEE3F2AE0F20751F080815C
:1017000091818737A7E79A0721F09093FF0A80938A
:10171000FE0A87E797E7918380838091600080933A
:1017200051029BE088E10FB6F894A8958093600081
:101730000FBE9093600097CF808191818737974744
:1017400009F091CFA8958091600088618093600036
:101750008091510280936000EE3FBAE0FB0739F0C0
:101760008091FE0A9091FF0A918380837CCF109232
:10177000FF0A1092FE0A77CF81E28093EB006C960D
:101780000FB6F894DEBF0FBECDBFDF91CF91FF91B2
:10179000EF91BF91AF919F918F917F916F915F91E9
:1017A0004F913F912F911F910F91FF90EF90DF90FC
:1017B000CF900F900FBE0F901F901895CF93DF938F
:1017C00000D0CDB7DEB7789484B5826084BD84B58F
:1017D000816084BD85B5826085BD85B5816085BD2C
:1017E00080916E00816080936E00109281008091E4
:1017F000810082608093810080918100816080936C
:1018000081008091800081608093800080919100B0
:10181000826080939100809191008160809391001B
:10182000809190008160809390008091C1008460DD
:101830008093C1008091C10082608093C10080913B
:10184000C10081608093C1008091C300816080935A
:10185000C3008091C00082608093C0008091C2006C
:1018600081608093C20080917A00846080937A00C6
:1018700080917A00826080937A0080917A008E7FD6
:1018800080937A0080917A00806880937A00109229
:10189000A10110929D0110929E018091D70081605C
:1018A0008093D70080EA8093D80089B58F7E89BD68
:1018B00089B5826089BD09B400FEFDCF61E070E0AA
:1018C00080E090E00E9435018091D8008F7C80619B
:1018D0008093D8008091E000807F8093E000809129
:1018E000E1008E7E8093E1008DE08093E200559AC6
:1018F000209AE091B201F091B30182E08083E091FF
:10190000AE01F091AF011082E091B001F091B10110
:1019100087E680831092BA01E091B601F091B70199
:1019200086E08083E091B401F091B501808180610F
:101930008083E091B401F091B5018081886080835B
:10194000E091B401F091B501808180688083E091DD
:10195000B401F091B50180818F7D8083FF24F394E1
:1019600082EA91E00E94CA01181619060CF067C0BD
:1019700082EA91E00E94A8018B31910519F4F0925E
:101980008F015DC020918F01213061F58D3491056B
:10199000C9F04CF48834910591F08B349105D9F459
:1019A00089E691E01AC08435910579F08B3591056F
:1019B00079F08035910579F482E691E00EC08DE5ED
:1019C00091E00BC080E791E008C088E791E005C096
:1019D00080E891E002C08AE891E00E94F908109244
:1019E0008F012DC09C012B7F2930310519F40E94F5
:1019F000C90425C08A30910511F189831A820091AA
:101A00004F02109150020F5F1F4FB8018BE492E01C
:101A10000E947704882399F020914B0230914C0268
:101A200080914F0290915002BE016F5F7F4F820FF5
:101A3000931F0E9420101093500200934F020E94A7
:101A40006F028ECF80914B0290914C020C94BA0E93
:101A5000109261021092600288EE93E0A0E0B0E084
:101A60008093620290936302A0936402B093650234
:101A700029E231E030935F0220935E022FEF3FEFC7
:101A800030936B0220936A021092A5011092A40178
:101A90008093A6019093A701A093A801B093A901F8
:101AA0008BE391E09093A3018093A2018DEC90E0F1
:101AB0009093AF018093AE018CEC90E09093B101D4
:101AC0008093B00188EC90E09093B3018093B201D1
:101AD00089EC90E09093B5018093B4018AEC90E09A
:101AE0009093B7018093B6018EEC90E09093B9018A
:101AF0008093B8011092BB011092BC011092BD01FD
:101B00001092BE0110924202109241028DE491E0C7
:101B10009093400280933F028091CD02811113C0C7
:101B20001092C8021092C70289E991E09093CA020C
:101B30008093C9028FE290E09093CC028093CB0215
:101B400081E08093CD028091BF02811105C00E9487
:101B5000AC0681E08093BF02E091B902F091BA0235
:101B6000309739F487EC92E09093BA028093B902EF
:101B70000AC080819181009711F0FC01FACF87ECB7
:101B800092E0918380832091BB023091BC028091CE
:101B9000CB029091CC02820F931F9093BC02809352
:101BA000BB0210924C0210924B0210924E02109205
:101BB0004D021092500210924F0240E050E066E554
:101BC00071E08BE492E00C949E042F923F924F922E
:101BD0005F926F927F928F929F92AF92BF92CF92BD
:101BE000DF92EF92FF920F931F93CF93DF93CDB7C6
:101BF000DEB7CA1BDB0B0FB6F894DEBF0FBECDBF3E
:101C000009942A88398848885F846E847D848C840E
:101C10009B84AA84B984C884DF80EE80FD800C8117
:101C20001B81AA81B981CE0FD11D0FB6F894DEBFFA
:101C30000FBECDBFED010895EE0FFF1F0590F4918B
:101C4000E02D09940F931F93CF93DF93823091057A
:101C500010F482E090E0E091D702F091D80220E009
:101C600030E0A0E0B0E0309719F14081518102816D
:101C7000138148175907C8F08417950769F410971E
:101C800031F012960C93129713961C9327C0009371
:101C9000D7021093D80222C02115310519F042173E
:101CA000530718F49A01BD01EF01DF01F801DBCF02
:101CB00021153105F9F0281B390B2430310580F44A
:101CC0008A819B816115710521F0FB0193838283D9
:101CD00004C09093D8028093D702FE01329644C08C
:101CE000FE01E20FF31F8193919322503109398352
:101CF00028833AC02091D5023091D602232B41F49B
:101D000020911501309116013093D6022093D5020F
:101D100020911301309114012115310541F42DB7A3
:101D20003EB74091170150911801241B350BE091EB
:101D3000D502F091D602E217F307A0F42E1B3F0B59
:101D40002817390778F0AC014E5F5F4F241735072D
:101D500048F04E0F5F1F5093D6024093D5028193F7
:101D6000919302C0E0E0F0E0CF01DF91CF911F91AD
:101D70000F910895CF93DF93009709F481C0FC0180
:101D8000329713821282A091D702B091D802109795
:101D900081F420813181820F931F2091D5023091EF
:101DA000D6022817390751F5F093D602E093D502F1
:101DB00067C0ED0120E030E0CE17DF0740F44A8134
:101DC0005B819E0141155105F1F0EA01F5CFD38306
:101DD000C28340815181840F951FC817D90759F4D8
:101DE00088819981840F951F0296918380838A81CF
:101DF0009B81938382832115310529F4F093D802C6
:101E0000E093D7023DC0E901FB83EA8349915991F0
:101E1000C40FD51FEC17FD0761F480819181840FF9
:101E2000951F0296E90199838883828193819B8320
:101E30008A83E0E0F0E012968D919C9113970097D1
:101E400019F0FD01DC01F7CF8D919C9111979D0157
:101E50002E5F3F4F820F931F2091D5023091D60203
:101E60002817390769F4309729F41092D802109294
:101E7000D70202C013821282B093D602A093D50279
:101E8000DF91CF910895A0E0B0E0E9E4FFE00C9489
:101E9000E90DEC01009721F4CB010E94220EB4C0A1
:101EA000FC01E60FF71F9C0122503109E217F307EE
:101EB00008F4A8C0D9010D911C91119706171707B6
:101EC000B0F00530110508F49BC0C80104978617CF
:101ED000970708F495C002501109061B170B0193D0
:101EE00011936D937C93CF010E94BA0E89C05B0160
:101EF000A01AB10A4C01800E911EA091D702B09198
:101F0000D802612C712CE12CF12C109709F446C0F9
:101F10008D919C911197A815B905B1F56C0142E01E
:101F2000C40ED11CCA14DB0478F14C018A189B083A
:101F3000640142E0C40ED11C1296BC901297139615
:101F4000AC91B5E0CB16D10440F0B282A38391826C
:101F50008082D9016D937C9309C00E5F1F4F800F63
:101F6000911FF90191838083EB2DFA2FE114F10485
:101F700031F0D7011396FC93EE93129741C0F09382
:101F8000D802E093D7023CC06816790608F43C01F9
:101F90007D0112960D90BC91A02DB7CF8091D502F6
:101FA0009091D60288169906E1F466167706C8F471
:101FB0008091130190911401009741F48DB79EB761
:101FC0004091170150911801841B950BE817F907F0
:101FD000C8F4F093D602E093D502F90171836083CF
:101FE0000FC0CB010E94220E7C01009759F0A8017E
:101FF000BE010E940E10CE010E94BA0EC70104C09D
:10200000CE0102C080E090E0CDB7DEB7EEE00C94E8
:10201000050E81E090E0F8940C942710FB01DC01A0
:1020200002C001900D9241505040D8F70895FB0135
:10203000DC018D91019080190110D9F3990B08955D
:10204000FB01DC0101900D920020E1F7089510E002
:10205000C5EED0E004C0FE010E941C0E2196C63ED3
:08206000D107C9F7F894FFCF86
:10206800FFFFFFFF00E100000000000000C18081C9
:102078000000000000D902200000000000550653AF
:102088000813087C06000000001F079C07B20735EC
:1020980007820740075E070000000001026F0199F0
:1020A800014D02CA01A801BC0100000000AB027981
:1020B80002A602A5023000323339304E005B55705B
:1020C8005D005B446F776E5D005B4C6566745D0018
:1020D8005B52696768745D005B5072696E745D007D
:0E20E8005B57696E646F77735D005B3F5D0050
:00000001FF
